:020000040000FA
:2000000000000120451301007513010077130100791301007B1301007D13010000000000A5
:200020000000000000000000000000007F1301000000000000000000811301008313010001
:20004000150201008513010091090100310F0100F91201008513010005FC000085130100D4
:200060008513010095030100A103010031FF0000851301000D05010085130100851301009B
:20008000AD030100E5FF000085130100851301008513010085130100851301008513010035
:2000A0008513010085130100851301008513010085130100851301000000000000000000AA
:2000C0008513010085130100851301001D13010085130100851301000000000000000000F2
:2000E000000000000000000000000000000000000000000000000000000000000000000000
:200100000000000000000000000000000000000000000000000000000000000000000000DF
:200120000000000000000000000000000000000000000000000000000000000000000000BF
:2001400000000000000000000000000000000000000000000000000000000000000000009F
:2001600000000000000000000000000000000000000000000000000000000000000000007F
:2001800000000000000000000000000000000000000000000000000000000000000000005F
:2001A00000000000000000000000000000000000000000000000000000000000000000003F
:2001C00000000000000000000000000000000000000000000000000000000000000000001F
:2001E0000000000000000000000000000000000000000000000000000000000000000000FF
:200200000000000000000000000000000000000000000000000000000000000000000000DE
:200220000000000000000000000000000000000000000000000000000000000000000000BE
:2002400000000000000000000000000000000000000000000000000000000000000000009E
:2002600000000000000000000000000000000000000000000000000000000000000000007E
:2002800000000000000000000000000000000000000000000000000000000000000000005E
:2002A00000000000000000000000000000000000000000000000000000000000000000003E
:2002C00000000000000000000000000000000000000000000000000000000000000000001E
:2002E0000000000000000000000000000000000000000000000000000000000000000000FE
:200300000000000000000000000000000000000000000000000000000000000000000000DD
:200320000000000000000000000000000000000000000000000000000000000000000000BD
:2003400000000000000000000000000000000000000000000000000000000000000000009D
:2003600000000000000000000000000000000000000000000000000000000000000000007D
:2003800000000000000000000000000000000000000000000000000000000000000000005D
:2003A00000000000000000000000000000000000000000000000000000000000000000003D
:2003C00000000000000000000000000000000000000000000000000000000000000000001D
:2003E0000000000000000000000000000000000000000000000000000000000000000000FD
:2004000001F0FF01102A2BDB10F0070F08D010F8013B013A8B422DD010F0070F42B3F6D1A2
:20042000F0B441EA012141EA014122F007047FF000070023F0E80256083C85EA010586EA4F
:20044000010685FA47F5A3FA87F586FA47F6A5FA87F68EB9EED1F0BC01F0FF0102F007024A
:2004600032B110F8013B013A83EA010313B1F8D10020704701387047002D06BF35460338AD
:20048000073815F0010F07D1013015F4807F02BF013015F4C03F0130F0BC0138704700BF71
:2004A0002DE9F04F05462DED028B002305F8013BC37A97B004468A461746861D23BB0123F9
:2004C000C37206A9504609F01BFA0AA9284609F017FA0EA9384609F013FA12A9304609F004
:2004E0000FFA4AF2C07006F005FB51460522284612F033FC39463046052212F02EFC17B025
:20050000BDEC028BBDE8F08F2946504609F014FADFF884B2DFF88492CBE9000131463846D1
:2005200009F00AFADBE9002352EA030CC9E90001CDE90023E3D011F099FBDDE90023CDE919
:2005400002011046194611F091FB02460B46DDE9020111F0EBFC0022834B11F005FA94F890
:200560000B80B8F1010FCDE9000100F0A98094ED047B53EC172B8DED027B11F0F5F96AA3F3
:20058000D3E90023CDE9040111F036FE38B368A3D3E90023DDE9040111F010FEF8B1DDE96E
:2005A00002010022714B11F097FB0022CDE902014FF07F53DDE9000111F08EFB0B460246F1
:2005C000DDE9020111F0D2F9B8F1060F9CBF08F10103E3720123C4E90401237071E706A9AB
:2005E000504609F08DF90AA9284609F089F90EA9384609F085F912A9304609F081F95C4A54
:200600005C495D4800F0B8FEE17A5C4800F0B4FE49A3D3E90023DDE9000111F05DFB41EC31
:20062000100B10F09FFF46A3D3E90023B0EE408AF0EE608ADDE9040111F04EFB41EC100BAC
:2006400010F090FF51EC100B11F0E0FD804651EC180B11F0DBFD42460146494800F08CFEFC
:20066000D9E9000111F002FB37A3D3E9002311F033FB11F0CBFD8046DBE9000111F0F6FA8C
:2006800031A3D3E9002311F027FB11F0BFFD424601463C4800F070FE0AAA06A93A4800F041
:2006A0006BFE12AA0EA9384800F066FE374800F063FEE37A002B3FF414AF013BE37210E7B4
:2006C00023A3D3E9002311F097FD70B122A3D3E90023DDE9000111F071FD30B19DED007BFF
:2006E000022384ED047BE372EBE6214A2149224800F042FEDBF80020D9F80010244800F020
:200700003BFE1B4A1B491C4800F036FE14A3D3E90023DDE9000111F0DFFA11F077FD01465C
:200720001C4800F029FECCE6C19D76BEC02868BEC19D76BEC028683E0000000065CDCD418C
:20074000000000A2941A6D42110769900669F03EF168E388B5F8F4BEF168E388B5F8F43E26
:200760000000000080842E410000F03F0000EC3FB84E0100F030010064300100404D010061
:20078000504D01005C4D01006C4D0100F04D0100084D0100304D0100001D0020F81C0020D4
:2007A0009FED010B704700BF000000000000F87F10B5054C237833B9044B13B10448AFF316
:2007C00000800123237010BD081D002000000000A075010008B5034B1BB103490348AFF3AA
:2007E000008008BD000000000C1D0020A0750100154B002B08BF134B9D46A3F5803A00214F
:200800008B460F461348144A121A12F08FFA0F4B002B00D098470E4B002B00D098470020BB
:20082000002104000D000D48002802D00C48AFF3008000F02BF82000290001F00BFF00F07A
:2008400011F800BF00000800000001200000000000000000F81C0020B83D0020000000005E
:200860000000000008B5074B044613B10021AFF30080054B1868836A03B19847204600F072
:2008800029F800BF000000000C30010070B50D4E0D4CA41BA4100025A54209D10B4E0C4C58
:2008A00012F0A8FBA41BA4100025A54205D170BD56F8253098470135EEE756F82530984702
:2008C0000135F2E7F01C0020F01C0020F01C0020F41C0020FEE700BF08B503787BB1012B21
:2008E00009D10B4B1B6813B1426810789847012108480FF093FFBDE8084003F0CFBA064BB3
:200900001B68002BF7D09847BDE8084003F0C6BA281D0020241D00202C1D002000B583B00C
:2009200002AB012103F8010D18460FF0E5FE03B05DF804FB014B1860704700BF281D0020F9
:20094000014B1860704700BF2C1D002030B50D4D0FCD89B06C460FC495E80F0084E80F0014
:20096000094968460FF0FEFD18B10022114610F029F90FF0F5FF012104480FF04FFF09B0B2
:2009800030BD00BF10300100D9080000241D00200B4B93F8582003EBC202918801B9704793
:2009A00010B492685A65114401240022D96583F860401A807E205DF8044BFFF7AFBF00BFC6
:2009C000F439002008B330B4104C94F824502B4604E0032B28BF0023AB420ED05A1C04EB12
:2009E000C201D3B249680029F3D104EBC2030021586024F8321030BC70475A1C04EBC20359
:200A00005B68002BF1D030BC704770475C3A002038B5094C00250BF0C1FF2581E560258263
:200A200065612583E5610BF0D7FF2560A5802562A58484F8265038BD5C3A002070B50C4EBB
:200A40000BF0ACFF0024334606F150029C609C80083393424FF00005F8D10BF0BDFF86F8A0
:200A6000605086F858407465F465346070BD00BFF439002010B5104C94F82430013304EB8D
:200A8000C302526812B134F833306BB14BF6D82006F030F82288002301322280236284F86F
:200AA000253084F8263010BD01212262638084F8263084F8251010BD5C3A002038B5164C64
:200AC000236A5A1C2262187094F82630012B236A1BD053B194F8242004EBC202D5685B1B47
:200AE000DDB2022D02D00A2D04D038BD012384F8263038BD40F2E71005F0FCFF284605F0FF
:200B0000F9FF002384F8253038BDA01C13F8031CBDE8384000F002BA5C3A0020F8B5364C60
:200B20007E2894F8253008D0CBB17D2858D0022B46D0BDE8F840FFF7C1BF002B54D0206A9E
:200B400094F8262060B984F8250040F6CF7005F0D1FF238801332380012384F82530F8BDA3
:200B600094F82430013304EBC30500216D6884F82510451BEDB24AB310F8017C10F8022C4C
:200B8000668842EA07229642AFB21FD1002DDCD0DAB2032A14BF84F8242084F824100422EE
:200BA000164924F83370023812F0D7F8A38814480133A38000228521BDE8F84002F030B9AE
:200BC000012380F0200084F82530B2E740F6CF7005F090FF238801332380002DBCD0F8BD0E
:200BE000022384F82530F8BD00F010FFA062BDE8F840FFF73FBF00BF5C3A0020843A002025
:200C0000F40B002008B50B4A0B4B10601960FFF715FFFFF7FDFE0021084802F02FF90020BE
:200C2000FFF794FE0648FFF785FE0648BDE80840FFF786BEF0390020583A0020F40B0020D6
:200C40001D0B0000F10D00002DE9F8432D4F0BF0A5FE97F824400BF0BFFE002C4FD0013CD0
:200C6000E4B2032500260BF099FEBB88002B3DD001340BF0B1FE37F8341071B307EBC4084F
:200C8000214BD8F804001B68023989B2984781460BF084FEBB88C8F80460013B27F83460A2
:200CA000BB800BF099FEB9F1000F16D097F82400034605E0022B88BF002398421A4617D02F
:200CC0005A1C07EBC201D3B249680029F2D107EBC20327F83260C3F80490E4B2032C05F155
:200CE000FF3508BF002415F0FF05BCD1BDE8F883013207EBC2035B68002BEED1E7E7022494
:200D0000AFE700BF5C3A0020F0390020038853B1B3F5B47F03D185290AD0012070470023BE
:200D20000380032070474FF4B47303800120704700B583B00190FFF787FF01984FF4B47399
:200D40000380012003B05DF804FB00BF0E4B5A6D93F8601001325A65022902780CD07D3AE4
:200D6000012A00D970477D2202705A6D0221013A5A6583F860107047012182F020020270F9
:200D800083F86010704700BFF43900202DE9F843154F97F858402CB3013CE4B2DFF84C8074
:200DA0000A267B8807EBC4050121CBB1AB68184663B1B5F80490B9F1000F07D1D8F8003050
:200DC00098477B88C5F80890013B7B800134E4B20A2C06F1FF3308BF002413F0FF06E0D1D7
:200DE000BDE8F8830924D9E7F4390020583A002010B5344C82B094F8602000238DF8073085
:200E000082B1616DE06D814222D351D00130814245D07E2084F860308DF80700FFF77EFDFB
:200E200002B010BD94F8583004EBC3010133DBB20A2B8A8014BF84F8583084F85820FFF7AB
:200E4000A7FD638801336380FFF7A0FF02B010BD08788DF80700012A17D04B1C022A63655F
:200E60000BD0A0F17D03012BD8D87D20022361658DF8070084F86030D0E780F0200001231F
:200E80008DF8070084F86030C8E70146204600F045F8616D94F860209DF80700DDE702A84D
:200EA000637800F8013DFFF751FF9DF80700B5E702A8237800F8013DFFF748FF9DF807004F
:200EC000ACE700BFF4390020C9B170B5124D95F85860334604E00A2B28BF0023B34210D0BF
:200EE000DA00AC180133A468DBB2002CF3D12A4495F860309060918053B1012070BD08466B
:200F00007047DA00AB189B68002BF0D0002070BDFFF73EFD012070BDF43900200288130ACF
:200F200043EA02231BB25940C9B281EA11110A01C3F30723534001704370038883EA420312
:200F40000380704730B44FF08050114AD0F8A4101160436ED0F8A840508901314FF010253C
:200F600011801B0CA1B21B04D5F8FC400B43536040F0C001631C518106D0A3B223B14FF6B7
:200F8000FF718B4218BF148030BC02F0BBBA00BFE039002008B50EF0E3FC08B90EF0ACFC5D
:200FA00002F024FA02220449044811F0D6FE0348BDE8084002F0F4BBE0390020D83900204C
:200FC000F8B5144B1B68022B08DD1349134A144800F0D2F91349144800F0CEF9134C144F6F
:200FE00063782678FD6A46EA03264BF27D010220A84731460320A84708210120A8472146C3
:201000007B6B08220B20984700210A48BDE8F84001F034BFA00C00205C30010054300100A4
:20102000643001007430010088300100D83900207C6E0100C40C002008B502F02FFF30BFE5
:20104000BDE8084002F026BF024B1B6803B11847704700BF381D0020024B1B6803B118471B
:20106000704700BF401D0020024B1B6803B11847704700BF481D0020204A38B504460D46AB
:20108000D2F80034002BFBD04FF010234FF0FF311A4AC3F80012D2F80034002BFBD04FF017
:2010A00010234FF0FF32C3F804221B2000F030FD1B2000F025FD01211B2000F031FD1B2051
:2010C00000F096FD0E2000F023FD2C440E2000F00FFD012C0A4B05D0022C03D014B1032273
:2010E0001A7300E01C734FF000549C60002204490448BDE838400FF0C1BF00BF00E001402E
:20110000680C00209030010008B501210220FFF7B3FF0C2000F06CFD1620BDE8084000F039
:2011200067BD00BF0E2000F0EBBC00BF0E2000F0DFBC00BF08B50E2000F04AFDB0FA80F094
:20114000400908BD00B587B006AB002203F8012D01228DF80F0000920DF10F01034810F0F7
:2011600047F89DF8170007B05DF804FB9030010030B5054685B070B17AB104A90024D2B2B2
:2011800001F8014D2B4600920A48012210F030F8204605B030BD01B112B9012005B030BD20
:2011A0000095D2B22B46034810F022F8284605B030BD00BF90300100F8B5124E336840F0D8
:2011C00080079F421DD01B060D46044612D40E4B6CB902221A700D483760012405605C70A8
:2011E0000B4A09490C20BDE8F8400EF0C3BB01221A70F0E70C200EF0CDFC034B002CE8D01A
:20120000F5E7F8BD3C1D00205C0C0020381D0020491000000C200EF08BBC00BF08B50C2055
:2012200000F0D6FC08BD00BF10B504460C2000F0CFFC003018BF0120A0420AD0074B2046D6
:201240001968FFF7B9FF01210C200EF00FFC002010BD0C200EF06CFC012010BD381D002026
:20126000F8B5124E336840F080079F421DD01B060D46044612D40E4B6CB902221A700D481C
:201280003760012405605C700B4A09490720BDE8F8400EF06FBB01221A70F0E707200EF0E5
:2012A00079FC034B002CE8D0F5E7F8BD441D0020600C0020401D00205910000007200EF0DE
:2012C00037BC00BF08B5072000F082FC08BD00BFF8B5124E336840F080079F421DD01B0638
:2012E0000D46044612D40E4B6CB902221A700D483760012405605C700B4A09491620BDE87B
:20130000F8400EF037BB01221A70F0E716200EF041FC034B002CE8D0F5E7F8BD4C1D002064
:20132000640C0020481D00206910000016200EF0FFBB00BF08B5162000F04AFC08BD00BFC5
:2013400010B50446162000F043FC003018BF0120A0420AD0074B20461968FFF7B9FF01212C
:2013600016200EF083FB002010BD16200EF0E0FB012010BD481D00200FB400B583B004ABF2
:2013800002AA53F8041B42F8043D002000F084F903B05DF804EB04B0704700BF2DE9F041C7
:2013A0000546C768D0E90104E41B944216460ED8161B88462246384411F0CFFC08EB040137
:2013C0003246686811F0C9FCEE60BDE8F08138443E4411F0C2FCEE60BDE8F0812DE9F84329
:2013E0008846C5688168064617464FF00009336970689D4203F1FF3426BF03F1FF335B1820
:20140000631BA1EB050428BF5B1BBC4228BF3C469C4228BF1C4641462844224611F09DFCD9
:20142000B1682544A94208BF00253F1BA144A044F560DCD14846BDE8F88300BF38B5144C74
:20144000144BE36108231448236102254FF44063124A134965612362C4F8DC0000231025DE
:20146000E01DA362E3626362C4F8EC30C4F8E830A261C4F8E430C4F8D820C4F8E05011F040
:2014800077FC2046074911F073FC2023A37138BD8C3A0020601D0020501D0020983001008E
:2014A000A4300100A830010070B5204D00EB400305EBC3030130DC6A00EB4000012C05EB49
:2014C000C0000E46154617D008D3022C02D00024204670BDBDE87040FFF780BF9A6A596AD3
:2014E0008A421DD9013A521A9542F1D831462A46FFF754FF2C46EBE79A6A5C6AA2420AD9DE
:20150000013A141BAC4228BF2C4631462246FFF745FF204670BD1B6A1344013B1C1BF1E747
:201520001B6A1344013B5A1ADEE700BF8C3A002010B50D4B1B7884B00C462BB9CDE90002E3
:20154000FFF77CFFDDE90002EFF311834FF0800181F3118821460393FFF7A6FF039B83F363
:20156000118804B010BD00BF8C3A002010B5D0E901235C1C944207D80268D154C368426879
:201580008460591CC16023469A4200D010BD044601680069FFF7CCFFA368984215BF4FF01A
:2015A000FF330023E360A36010BD00BF2DE9F84F1546A9420F4681461E46DDE90AA266D336
:2015C0000B464FF00108B3FBF5F39D4208F10108F9D9B04538BFB04612F0010B02D1BAF1BB
:2015E000000F39D1D9F80C30002B33DB012402E0013E05FB04F4012EFAD8B7FBF4F39D42D5
:20160000F7D9244E04E0B4FBF5F45CB1B7FBF4F3F15C484604FB1377FFF7A8FFD9F80C3058
:20162000002BF0DABBF1000F14D0BAF1000F11D0D04502D30EE0C2450CD020214846FFF7FB
:2016400095FFD9F80C30002B0AF1FF3A02DBBAF1000FF0D1BDE8F88F930713D42024C2453A
:2016600005D8BFE7BAF1000FC0D0C245BED021464846FFF77BFFD9F80C30002B0AF1FF3A37
:20168000F0DAE7E7002E0CBF30242024E7E74FF001089EE7B03001002DE9F04FADB081462C
:2016A0000DF1300A80200023DFF80C83CDF82C900C461746CDE907A0CDE9093305E007A8B6
:2016C000FFF754FF0A98002863DB14F8011B00296AD02529F3D10026234613F8012BA2F1C3
:2016E000230118460D2918D8DFE801F013171717171717170F170B17170746F002061C46D0
:20170000EAE746F001061C46E6E746F004061C46E2E746F008061C46DEE7A2F130010929C0
:2017200000F29180002501E01C46013305EB850502EB45051A78A2F130010929A5F1300506
:201740009C46F1D9A01C2E2A58D09CF800106446002301E014F8011C01F0FB02682A04F1B1
:201760000104F7D0642971D016D9732900F0BA8023D9752940F0D9803A68111D3960116815
:2017800007A8CDE900560A22FFF710FF0A9800289BDA2DB0BDE8F08F582900F0C9806329D7
:2017A0001BD025298ED18AE70A980028F1DD099AE2B910442DB0BDE8F08F702982D13B6866
:2017C0001A1D3A60196800220823CDE9003207A81022FFF7EBFE0A9875E73B681A1D3A6050
:2017E00007A81978FFF7C2FE0A986CE751464846FFF79EFEDDE909201044DBE79CF801109D
:201800002A2900F0D280A1F13003092B00F2CF80002302E0092A20469ED803EB830301EB85
:20182000430341782A29A1F13002A3F1300300F10104EFD1831C20461C463B681A1D3A603A
:201840001B68417888E7A44600257CE73A68111D3960126882EAE271A1EBE27109294FF079
:20186000010B06DDA8FB0101C90809290BF1010BF8DC9B4538BF9B4606F0020175B3002AF2
:2018800062DB700760D401B143B3F00726D42DB35D4502D822E05D450FD007A82021CDE942
:2018A0000332FFF763FE0A98002805F1FF35FFF670AFDDE90332002DEDD1002A6ADB7107C7
:2018C00044D406F0030102294DD0114607A8CDE900560A22FFF76AFE0A98F4E60A980028CC
:2018E000EBDA56E73A68111D3960166883B10133F51816F8011B04E016F8011BAE423FF42F
:20190000E2AE07A8FFF732FE0A980028F4DA40E716F8013B07A81946002B3FF4D3AEFFF776
:2019200025FE0A980028F3DA33E778297FF4CAAE3A68111D3960116807A8CDE90056102278
:20194000FFF734FE0A98BEE6013D9CE72B2107A8CDE90332FFF70AFEDDE903320A980028AF
:20196000FFF617AFADE7002BAFD11DB35D4505D8ABE7DDE90332EDB15D45A6D007A83021DB
:20198000CDE90332FFF7F2FD0A98002805F1FF35EFDAFEE652422D2107A804930392059282
:2019A000FFF7E4FDDDE90323D8E7441C45E704460023D1E6002588E7CDCCCCCC10B5104B10
:2019C000002420461C600EF0D3FB18B1224621460FF0F8F80EF0DCFB0A4A0B4800210EF013
:2019E000C1F918B1002211460FF0ECF8064801210EF06AFA0448BDE810400EF0E7B900BF98
:201A000060290020391A0000C0300100014B1868704700BF6029002008B5064A1368013332
:201A2000136000F0D5FF00B908BDBDE8084000F0AFBF00BF6029002010B5044602F00CFA37
:201A4000042C03D0BDE8104002F008BAFFF7E4FFBDE8104002F002BA704700BF704700BF72
:201A600008B50B4900200EF0B3FC58B909480EF0E7FC18B1002211460FF0A4F8064B0122F4
:201A80001A7008BD002211460FF09CF8EEE700BF5D1A0000B4390020B5390020024B1B78E5
:201AA00003B970470EF0BEBCB5390020034B1B7803B97047024B18780EF0E4BCB539002050
:201AC000B439002062B67047EFF3108072B6704780F31088704700BFEFF31080B0FA80F0CC
:201AE00040097047012303FA00F001F021BD00BF01234FF0A04203FA00F0C2F80805704797
:201B000001234FF0A04203FA00F0C2F80C05704700F5E0704FF0A043032243F82020704753
:201B200030B583B000230C46032211F00C018DF804208DF805308DF806308DF807300546C0
:201B40002DD0042919D0082904BF02238DF8043014F0030317D0022B24D0012B26D014F068
:201B6000800115D0012128460DF080FF2846114A01A90DF0FFFE03B030BD01238DF8043009
:201B800014F00303E7D18DF8053014F08001E9D128460DF06BFF28460DF0CAFFE6E70DF0B7
:201BA00065FFD5E701238DF80530D8E703238DF80530EAE7E51A0000012303FA00F04FF068
:201BC000A04311B1C3F808057047C3F80C0570474FF0A042D2F81835C340DB074CBFD2F86C
:201BE0000435D2F8103523FA00F000F00100704700F5E0704FF0A043002243F8202070472D
:201C000001210DF033BF00BF024B1B6803B11847704700BF64290020204A38B504460D46FA
:201C2000D2F80034002BFBD04FF010234FF0FF311A4AC3F80012D2F80034002BFBD04FF06B
:201C400010234FF0FF32C3F804221820FFF760FF1820FFF755FF01211820FFF761FF182009
:201C6000FFF7C6FF1120FFF753FF2C441120FFF73FFF012C0A4B05D0022C03D014B1032219
:201C80001A7300E01C734FF000549C60002204490448BDE838400FF0F1B900BF00E0014058
:201CA0007C0C0020C830010008B500210846FFF7B3FF1320BDE80840FFF79ABF1120FFF719
:201CC0001FBF00BF1120FFF713BF00BF00B587B006AB002203F8012D01228DF80F0000927E
:201CE0000DF10F0103480FF083FA9DF8170007B05DF804FBC830010030B5054685B070B1D9
:201D00007AB104A90024D2B201F8014D2B4600920A4801220FF06CFA204605B030BD01B165
:201D200012B9012005B030BD0095D2B22B4603480FF05EFA284605B030BD00BFC830010021
:201D4000704700BFF8B5124E336840F080079F421DD01B060D46044612D40E4B6CB902229A
:201D60001A700D483760012405605C700B4A09491320BDE8F8400DF0FDBD01221A70F0E7A5
:201D800013200DF007FF034B002CE8D0F5E7F8BD68290020780C002064290020091C000023
:201DA000012113200DF062BE08B51320FFF710FF08BD00BF08B50820FFF7AAFE0820FFF797
:201DC0009FFE0820FFF7A4FE0820FFF799FE0F20FFF79EFE0F20FFF793FE012008BD00BFD5
:201DE00038B5C4B2050AE10705F0010318D5A3B30F21002001F0B0FBA20705F0020318D5D1
:201E00003BB30821002001F0A7FB630705F0040518D5CDB108210020BDE8384001F09CBB77
:201E2000002BE9D00F20FFF76BFEA20705F00203E6D4002BE9D00820FFF762FE630705F012
:201E40000405E6D46DB938BD0820BDE83840FFF74FBE0820FFF74CFED7E70F20FFF748FECB
:201E6000CAE70820BDE83840FFF74ABE10B5044601F0F2FF01F0F0FFB4F5A27F01D10DF004
:201E80003DFC01F0EBFFBDE8104001F0E7BF00BF08B5002103480EF05BFA034B1B6818443A
:201EA00008BD00BFD03001006C29002001480EF045BA00BFD030010008B50B4A0B4800215C
:201EC0000EF0E2F918B1002211460EF07BFE07480EF034FA41F2AC7004F00CFE4DF27E00EB
:201EE000BDE8084004F006BE6D1E0000D030010038B50A4C0021054620460EF029FA084B28
:201F00002D1A20461D600EF00FFA20460EF016FA2046BDE838400EF007BA00BFD03001001A
:201F20006C290020704700BF38B50C4B0C4C1B68C31A053B00210B4823600EF009FA2268B8
:201F40000C30151A02D52060024600250123194604480EF00DFA284638BD00BF6C290020A7
:201F600070290020D030010070B50C4E0C4D0446002130460EF0ECF9053C0C2C2CBF04198A
:201F800000F10C0401233046194622462C600EF0EFF9044B28681B68184470BDD030010081
:201FA000702900206C29002010B5044601F054FF01F052FFC4B1052C10D11E4A1E4BD2F8FC
:201FC000042599781A70C2F30720C2F307429142587002D9D9780131D9709A7001F03EFFE9
:201FE000BDE8104001F03ABF124A134BD2F80425997812481A70C2F307245C70C2F30742B6
:20200000DC78C0789A70914285BF611CC9B22146D970884201D08442E0D1094C002323704E
:202020000DF06CFB21780029D8D106480DF0DAFED4E700BF00B000407429002078290020C6
:20204000B6390020D830010043F609514FF480720023E1FB0023500A40EAC350704700BF71
:2020600007EE900AB8EE677ADFED087A67EE277A08B517EE900A10F0C3F910F1400241F179
:202080000003D00940EA436008BD00BFBD378640094A0A4BD2F8042599781A70C2F3072047
:2020A000C2F307429142587002D9D9780131D9709A701868704700BF00B000407429002033
:2020C0000E4A0F4BD2F8042599781A70C2F30720C2F307429142587002D9D9780131D970A4
:2020E0009A70186843F609514FF480720023E1FB0023500A40EAC350704700BF00B000406F
:202100007429002008B500200EF032F858BB0EF03FF8174A174800210DF024FE18B10022CA
:2021200011460EF04FFD13480DF0E4FE002111480DF058FE01210F480DF0E4FE0E4B012223
:202140001A6045F2EE1004F0D5FC4DF27E0004F0D1FC0A4A0A490B48FFF70EF90A48BDE89F
:202160000840FFF709B94AF24E1004F0C3FCD0E7A91F0000D830010008B00040E030010081
:20218000F030010064300100F430010001480DF01DBE00BFD8300100704700BFF8B5224AEC
:2021A000224BD2F8042599781A70C2F30724C2F3074291425C7002D9D9780131D9709A70F6
:2021C0001D684FF4807643F6095303350027E3FB0567730A43EAC753C41A21D407EE904A9D
:2021E0009FED137AF8EEE77A67EE877A17EE900A10F006F910F1400641F10007F30943EAE2
:2022000047630C4A1D4415600B4E0C4801210B46317025F07F4200210DF008FE2046F8BD12
:20222000044B1D60F0E700BF00B0004074290020BD37864078290020B6390020D8300100FC
:20224000053807EE900A9FED207AF8EE677A70B567EE877A17EE900A10F0D2F81B4B1C4A15
:20226000D3F80445147010F1400541F10006EB0943EA46639078C4F30721032BC4F3074467
:20228000B8BF0323A042517002D9D1780131D170947012680F4C104D10481344012123F04D
:2022A0007F42236029700B4600210DF0BFFD206843F609514FF480720023E1FB0023500A4A
:2022C00040EAC35070BD00BFBD37864000B000407429002078290020B6390020D830010095
:2022E00082B0214B002201920122C3F800251946DA60D1F81031002BFBD000231A4AC1F8AF
:202300001031D2F80034012BFBD0012316491360D1F80031002BFBD000200123124AC1F848
:2023200000014B60D2F80431002BFBD000210F4BC2F804111B88DFED0E6A0B491BB207EEB5
:20234000903AF8EEE77A012387EEA67A8DED017A9360D1F81431002BFBD00023C1F81431A6
:202360009DED010A02B0704700700040A4390020CD388E4538B501F095FD47F6D22004F047
:20238000B9FB41F2147004F0B5FB1749174804F0A3FC47F6D22004F0ADFB1E20FFF728FCB9
:2023A0004FF0A041124B134A13480024C1F878474FF400350721C3F87855C3F870150325BC
:2023C0000121C3F87445C3F8F055C3F83016C3F82C060221C3F8F84582F8C64882F8C5187F
:2023E00001F064FD204638BD0C3101001831010000700040D4100020A4390020704700BF81
:20240000002070470DF0D2BE4FF08043002210B5C3F80C21C3F810210DF0F4FE08B3354B71
:20242000354C0122DA600AF0ADF9D4F8003553BB0423C4F800354FF04024D4F800358BBB0D
:202440000123C4F800352D4CD4F80035002B37D10123C4F800352A4CD4F80035002B3DD1F5
:2024600010BD04464F2004F045FB40F2C15004F041FB244A1368033B136020466421BDE805
:2024800010400BF01FBA45F64E6004F033FBD4F800054FF0402480B204F02CFBD4F800354B
:2024A000002BCDD045F6111004F024FBD4F80005124C80B204F01EFBD4F80035002BC7D0B4
:2024C00045F6121004F016FBD4F800050C4C80B204F010FBD4F80035002BC1D040F6DC2051
:2024E00004F008FBD4F80005BDE8104080B204F001BB00BF00A000400020004000300240CC
:2025000000700040F03C002038B54FF0804300242A492B4DC3F80C414FF04022C3F810410C
:20252000D1F80035D2F80035D5F80035002B39D1244CD4F800355BBB234CD4F800352BB98C
:202540000AF030F9BDE838400DF048BE40F6DC2004F0D0FAD4F8000580B204F0CBFA012368
:20256000A360D4F814313BB94AF6C15004F0C2FAD4F81431002BF7D0134B0022C3F81421DF
:20258000C3F800250AF00EF9BDE838400DF026BE4AF6CE4004F0AEFAD4F8000580B204F07B
:2025A000A9FAC9E745F6121004F0A4FAD5F8000580B204F09FFAC5F80045B9E70020004046
:2025C00000300240003000400070004008B50DF019FE00B908BD01F05DFC1F2004F08AFA19
:2025E00040F2C15004F086FA01F058FC044A1368033B136064210020BDE808400BF062B9BD
:20260000F03C002010B5002382B019460220ADF806300BF0DFFA0446FFF762FE10EE100A6C
:202620000FF002FB0022094B0FF056FB084B00220FF09CF90FF012FE02A9022221F8020DC9
:20264000204610F08AFB02B010BD00BF00A09E400000E03F10B5FEF775FC574CFFF7AEF949
:2026600000F03AFC00F06CFB0021544800F006FC00F03CFAFFF7F4F900F0D2F800F05EFC21
:20268000FEF788FC00F076FF01F06CF801F002FC47F2DE0004F02EFA00F020FC01F0FEFBEF
:2026A0002368022B3EDC01F0F5FB4AF6D75004F021FA2368022B13DC01F0F0FBFEF780FCFD
:2026C0003F4800F0A1F8FFF7E9F900F053FB0446FFF7ECF914F0FF0FF7D1FEF7ADFCF4E75C
:2026E000384A39493948FEF747FE394B39481988FEF742FE2368022BDEDD324A324933485B
:20270000FEF73AFE3448FEF737FE2368022BD3DD324800F08DF92368022BCDDD3048FEF7BF
:202720002BFEC9E7274A28492848FEF725FE2D48FEF722FE2368022BB5DD224A2249234840
:20274000FEF71AFE284B29481968FEF715FE2368022BA8DD1B4A1C491C48FEF70DFE244B25
:2027600024481968FEF708FE2368022B9BDD154A15491648FEF700FE1F4B20481968FEF7EB
:20278000FBFD2368022B8EDD0E4A0F490F48FEF7F3FD4BF27D011A48FEF7EEFD2368022B7D
:2027A00081DD084A08490948FEF7E6FD08211548FEF7E2FD77E700BFA00C00208C0C0020F4
:2027C00050740100243101005C30010064300100A6390020C8310100D8310100B43B0020AA
:2027E000F04D01002C310100907201006431010078720100743101005C6E01008031010096
:202800008C310100A831010010B50446006830B1002100F033FB54F8040F0028F8D110BD6C
:20282000704700BF10B5FFF7F1F80B4B1B68D3E900149A682144091A4AB1D2E900342344FA
:202840001B1A9268994228BF1946002AF5D1034B0844186010BD00BF802900207C2900200C
:202860002DE9F8430388054673B35A2B27D1872930D082291ED12E4FDFF8BC803C684FF0D1
:202880000009BCB1002603E0A368264693B11C46204600F045FB0028F6D022468821E068BF
:2028A00000F0BEFA30B3404600F008FBA3682646002BECD15A232B800120BDE8F883002329
:2028C00003800320BDE8F883194A13605A232B800120F2E7164F39680029EBD0CB689A4241
:2028E00003D014E0CB68934210D189680029F9D13960DFE7E060A368BEB1B3603B68C4F8B9
:2029000008907BB1FFF78EFF3C68BAE739608B68002BCFD0D3E90204944214BF1946886023
:202920000346F5E7034A1360C4E73B60E7E700BF802900207C2900208C0C002010B504468A
:20294000104800F0BBFA1049E3680A684BB142B194420FD0134601E09C420BD09B68002B9F
:20296000FAD10A4BA2601B68E3600C60BDE81040FFF758BF054B1B68E360BDE81040FFF700
:2029800051BF00BF8C0C002080290020082B0020014800F093BA00BF8C0C002010B5044688
:2029A00000F0A8FA2046BDE81040FFF7C7BF00BF10B5044600F0A6FA2046BDE81040FFF7FF
:2029C000BDBF00BFC068B0FA80F04009704700BF024B1868003018BF012070478029002046
:2029E00010B5114B1A688242044613D072B19368984208BF134605D043B19A68A24201D0AB
:202A00001346F9E7A2689A60FFF70CFF0023C4E9023310BD82681A60002AF5D1034B1A608A
:202A20000023C4E9023310BD802900207C29002058B110B5044641780548FEF79DFC2178F1
:202A40000348BDE81040FEF797BC0248FEF794BCFC31010004320100F0B5038883B005464C
:202A60005BB14A2B04D188291BD0012003B0F0BD00230380032003B0F0BD194800F072FBFC
:202A8000044630B1A168201DFFF788FF2468002CF8D1144B01221A704A2301202B8003B0CF
:202AA000F0BD0F48019200F05DFB04460028F3D0019A031D9A4205D02468231D002CEBD0E3
:202AC0009A42F9D121460648074E00F075FBD4E90523376832600BB1E06998473760DBE793
:202AE00084290020B7390020082B002010B5064B064800241C7000F031FB21460448BDE81E
:202B0000104000F0BBB900BFB739002084290020A40C002070B50E4C049E257846610446E6
:202B2000C0E9062335B9A1600A482146BDE8704000F01ABB084D094B2E682B600430FFF70D
:202B40002DFF2E6021460348BDE8704000F00CBBB739002084290020082B0020A40C0020FD
:202B600010B5044C82B024680094FFF7D3FF02B010BD00BF082B002010B50A4B1B7804469E
:202B80003BB9C0E9033321460748BDE8104000F013BB0430FFF724FF21460348BDE8104005
:202BA00000F00ABBB73900208429002038B50C4B1D7875B904460B4800F0D4FA38B1A04256
:202BC00002D10BE0844209D000680028FAD1012038BD0430BDE83840FFF7F4BE002038BD19
:202BE000B7390020842900202DE9F843254E3568854208D0002D3BD02B4601E0002B37D03C
:202C00001B689842FAD1002832D01F4F837BD7F8008089460446E3B10023837375B1AC42CD
:202C200009D0AB7BDB0706D5AB682846224687210BB100F02BF82D68002DF0D1A3683BB1FE
:202C40004C4505D03C600022832104F10C0098473568A54212D04DB12B68A3420AD02BB13A
:202C60001A68A24207D01346002BF9D1C7F80080BDE8F8832B4622681A60F7E72B683360F1
:202C8000F4E700BF0C2B0020082B00208829F8B504460D4600F10C060ED01748A368046046
:202CA00002273046A7739847023801281DD9832D1BD00123A373F8BD0846174603F01AFFE2
:202CC000636818785B7843EA002003F013FF0A4AA36814604FF0020C3A462946304684F873
:202CE0000EC0984702380128E3D821462046BDE8F840FFF779BF00BF082B002038B50A4ADE
:202D00000A4B146800221A706CB10125E37B3BB1A368E5812046002282210BB1FFF7B6FFA6
:202D20002468002CF2D138BD0C2B0020BB390020024B1878421C1A70704700BFB93900206B
:202D400030B4074B07480849084A094C8A251D70002303700B601360237030BC704700BF51
:202D6000B9390020BA3900200C2B0020082B0020B83900202DE9F041244D2B780BB1FFF766
:202D8000BDFF234E3378BBB12248234F027802EB420189007C18013202F01F02013B027058
:202DA000A0687F5CD4F80480DBB23370B0B1812F06D0827BD20705D428781844BDE8F08108
:202DC000012282738268002AF6D042463946FFF75DFF337828781844BDE8F0810F4A146816
:202DE0006CB9E9E7A37BD90706D5A3682046424639460BB1FFF74AFF2468002CE9D02B787E
:202E0000002BEFD0FFF77AFFECE700BFBB390020BA390020B8390020882900200C2B002067
:202E200070B40C4D2C78202C11D00B4B0B4E1B78234403F01F0303EB43039B0001342C70E6
:202E4000F418C4E90120F154002070BC7047012070BC7047BA390020B83900208829002057
:202E600070B5867B044CF307256803D583680BB1FFF70CFF256070BD082B002070B40E4E50
:202E80003568854207D004463DB12B4600E023B11B689C42FBD170BC7047002CFBD0012072
:202EA00000232560A073A3810A4620463460812170BCFFF7D5BF00BF0C2B002018B1837BB4
:202EC000013B012B00D97047024A01231370C373704700BFBB390020FEF7BEBD034A04493D
:202EE0005078137803EB00230B807047B43B0020A639002010B541600446FEF787FD206075
:202F000010BD00BF10B50446FEF780FDD4E90021C2F101031844884284BF5218226010BDED
:202F200010B50446FEF772FDD4E90032C3F10103184482422CBF0020012010BD82B002AA80
:202F4000074B42F8043D9A4204D9CD2103F8011B9342FBD10348002102B0FFF78FBF00BF24
:202F6000B83D0020B40C002038B5124C124DFEF79DFD2378CD2B08D0AC4202D315E0AC4212
:202F800013D014F8013FCD2BF9D1AC4202D30CE0AC420AD014F8013FCD2BF9D0FEF786FD44
:202FA000AC4238BF281B02D238BDFEF77FFD4FF0FF3038BDB83D00200000012070B5038866
:202FC00004465BB1912B05D11F48FFF7FBFC70B9012070BD00230380032070BD4FF4A06104
:202FE0001948FFF7DBFC91232380012070BDFFF7BBFF164D164B061EA5EB030515DB002DB1
:2030000013DBAE420DDD134B1B68002B09DD124A12491348FEF7B0F92A4631461148FEF711
:20302000ABF90948FFF7C4FCDDE70A4B1B68002BF7DD094A09490A48FEF79EF92A463146E0
:203040000948FEF799F9ECE7102B002000000120B83D0020A00C0020243201002C320100B2
:20306000643001005C320100303201002DE9F0410488772C06462FD07E2C26D024B1002370
:2030800003800320BDE8F0812E4F2F4DFFF750FE2E4B3A6818702C6082B123462C4C984616
:2030A00004F8038000219368802098472B6801332B6057F82320002AF2D1DAB2254B1A709F
:2030C000772333800120BDE8F081204B1B788B421CD00120BDE8F081DFF878801A4D98F8B8
:2030E00000201D4F00233B602B60002AE8D0184CE256002A18DB2B6898F800200133934214
:203100002B60F5DB3B68002BECD1D9E70E4D104CDFF84080104F2B683A68E15C013201F0C6
:203120007F01E1543A60E7E7064A084952F8232009780020FFF774FE0028ECD17E23338002
:2031400001209FE7301D0020242B0020B23D0020883A0020BC390020202B002000230360F5
:20316000704700BF0068704710B404685CB1A1421ED023680BB906E01346994214D01A68DD
:203180001C46002AF8D100230B6002680AB907E01A461368002BFBD111605DF8044B70479A
:2031A00001605DF8044B70470B6814B12360EAE70B680360E7E700BF10B404685CB18C4259
:2031C00013D023680BB906E013468B421A6805D01C46002AF8D15DF8044B70473CB122603B
:2031E00000221A605DF8044B7047226823460260F6E700BF10B504464288406800210FF046
:2032000095FD23886288A06802FB03F20021BDE810400FF08BBD00BF00B583B02A23ADF897
:2032200006300DF105000DF039F99DF80530012BF7D902210DF106000DF03AF918B100221E
:2032400011460DF0BFFCBDF8060003B05DF804FB10B590F84C10094A013180F84C10044651
:20326000034680212030FFF77BFC054B224619780020BDE81040FFF7D3BD00BF5132000081
:20328000B43D0020F8B5038804464BB1E12B03D1822909D00120F8BD002303800320F8BDE7
:2032A000E12323800120F8BDFEF70EFC104D114B00221E681A60FEF70BFC28680028EFD044
:2032C0000D4F03E055F8040F0028E9D090F8453026FA03F3DB07F5D5FFF768FC0028F1D06C
:2032E0002B683A4618460221FFF73AFCEAE700BF040C0020342B002039330000034A13689B
:20330000034303481360FFF7D9BD00BF342B0020D40C002010B5044690F84500FEF758FCBA
:2033200010B994F8440010BD01280ABF94F84400002080F0010010BDF8B50446FFF736FCE8
:2033400000B9F8BD04F120063046FFF72FFC07462046FFF7DFFF0128054619D00028F0D180
:20336000002FEED13046FFF707FC184B224619783846FFF755FD164A16491748FDF7FCFFC1
:203380001648FDF7F9FF0120BDE8F84000F08AB8002FD6D000273046234684F84C70104A46
:2033A0007E21FFF7DDFB0F4B224619783846FFF737FD074A07490848FDF7DEFF0A48FDF79D
:2033C000DBFF2846BDE8F84000F05CB8B33D00208C320100F030010064300100A832010064
:2033E00051320000B53D002098320100F8B5FFF79FFC1D4B1D4C1870FFF79AFC1C4B1D4F77
:203400001870FFF795FC1C4922681C4B08700021C7E90131F2B10126956C92F84500FEF73D
:20342000E7FB236845F08C05294693F84500FEF777FB236893F84500FEF7E2FB2368B968DA
:2034400093F8453054F8042F06FA03F30B43BB60002AE1D10A480021FFF710FD0548BDE84A
:20346000F84000F05FB800BFB53D0020040C0020B33D0020282B0020B43D0020FD32000049
:20348000D40C0020012800D97047054B03EB400213F8100053780BB9FEF72ABBFEF730BB8F
:2034A0008C300100012800D97047054B03EB400213F8100053780BB9FEF722BBFEF718BBD2
:2034C0008C300100C20710B5044605D50C4B5A7818787AB1FEF70CFBA3070FD5084BDA786A
:2034E00098781AB1BDE81040FEF702BBBDE81040FEF706BBFEF704FBA307EFD410BD00BFB2
:203500008C30010010B5064C2078FEF701FBA078FEF7FEFA0320BDE81040FFF7D3BF00BFEA
:203520008C30010001460148FFF71EBE382B002038B505460748FFF715FE48B10446A0680E
:20354000284002D0636803B198472468002CF6D138BD00BF382B002010B508460C46FEF7C3
:2035600037FB80F00101C9B22046BDE81040FEF723BB00BF08B50448FFF73CFE0348BDE816
:203580000840FFF737BE00BFF00C0020E40C002070B4134B134C144A21781B7812880B44B9
:2035A00052FA83F39BB21A18802A16DC013B1BB2002B0DDB0D4D1A1801325E1C2A443544F2
:2035C000013B15F8016D02F8016D1BB25E1CF7D108442070012070BC7047002070BC7047DA
:2035E000AA390020BD390020A83900206C300020084A138883420BDB10B407490C8880B283
:203600001B1A20440880138001205DF8044B704700207047A8390020AA390020014B1880BB
:20362000704700BFA8390020044A054B12781B780448134450FA83F0704700BFAA3900207F
:20364000BD3900206C300020004870476C300020014B1888704700BFA83900200549064ADC
:20366000064B127808781B88104453FA80F080B2704700BFBD390020AA390020A839002079
:2036800038B5084D084C09481A2200210FF04EFB2946204600F078F82946A01CBDE8384021
:2036A00000F072B8D0320100943B0020983B002004480549054A002303800B801370FFF778
:2036C000DFBF00BFAA390020A8390020BD390020F8B5802928BF8021094A0A4D0A4F0C4640
:2036E0000023064613703B802B80FFF7C9FF3146224606480FF031FB2C802046F8BD00BFD6
:20370000BD390020A8390020AA3900206C300020024B23F810100120704700BF983B0020C1
:20372000014B33F810007047983B002008B5044B0D3803EB400000F027F8012008BD00BF25
:20374000943B0020024B0D3803EB4000704700BF943B00200149024800F01AB8D0320100FC
:20376000963B0020054B10B51B689847044B5B689847044BBDE810405B6818477C6E01009F
:203780005C6E01007872010002220FF0E6BA00BF08B502220FF0D2FAB0FA80F0400908BD1D
:2037A0000146022201480FF0D8BA00BFB43B002040B130B40D460446114628461A462346F6
:2037C00030BC1847704700BF30B591B0FFF72CFF0446FFF73DFF6A460146204600F088FA96
:2037E00000283ED00446FFF703FFD0B39DF810100C20FFF78DFF9DF813100820FFF788FF0E
:203800009DF817308BB1BDF81C5000F0DDF8854205D0BDF81C204FF6FF739A4221D16946E9
:203820009DF8170000F084F9B0B102A90D20FFF77DFF9DF815303BB14FF6FF710720FFF72C
:2038400067FF204611B030BD9DF81A100720FFF75FFF204611B030BD69460E20FFF766FF68
:20386000E3E74FF0FF34ECE770B505460C2014460E46A84700232074A3745EBB0820A84702
:203880006675E0740920A847002601232376A07566740720A847A07600F096F8E0830A20D8
:2038A000A847012816BF02236676637600F08CF8A0830B20A847012804D00223E3750123F2
:2038C000237570BD627E0023022AE37518BF2375F5D070BDE3746375D4E700BF30B591B06C
:2038E000044600F071F84FF6FF7398425BD04022684600210FF01AFA2C4B1A7822B35CBB30
:20390000FFF728FF6A46C1B22948FFF7ADFFFFF721FF00283CD04FF6FF73ADF800300D2051
:20392000FFF710FF014602A8FFF72EFFFFF77CFE0E90FFF78DFE0F90684600F009F9054655
:20394000D4B9284611B030BD01221A70FFF764FC184B1870002CD3D00720FFF7E1FE0028DD
:20396000CED1144D2978D9B189B20720FFF7D0FE2B7801332B70C3E7FFF70AFE98B1FFF79D
:2039800063FE0146684600F02FF9284611B030BD0E20FFF7D7FE01466846FFF7F5FEBEE721
:2039A00001212970E1E74FF0FF35CAE7BE39002021370000BF3900200120FFF78FBF00BFB5
:2039C0000020FFF78BBF00BF014B1888704700BFE01C002010B3037A022B30B410D003789E
:2039E000022B1CD00379EBB10024C37913F0030318BF012301B10C6002B1136030BC70474B
:203A0000C579447A03799DB90CB9012BF2D033B9023C012C8CBF00240124EBE7704700238E
:203A20001C46E7E7447A14F0030418BF0124DCE784B9DBB1032DF2D0022DF0D0002BEED13A
:203A4000022D17D0032D1FD1A4F10204B4FA84F46409CFE7032D13D1032C17D0022CEDD136
:203A60008BB9022D16D101231C46C3E7022D08BF01230FD1A4F10304B4FA84F46409B9E7F3
:203A8000022DEBD143B101230024B3E7002BC6D10123D9E70123D5E7022C4FF00103E9D1B4
:203AA0001C46A7E730B504460D46084683B0002106220FF03BF9637DD9075CBF01232B70FD
:203AC000237E012B23D901AA694604F11000FFF781FF009B0BB10223EB70019B0BB10223F4
:203AE0006B70E37D03F00303022B03D0032B0CBF08230023AB70637E03F00303022B03D056
:203B0000032B0CBF082300232B7103B030BDE37D9A0706D0637E9B0703D0E28BA38B9A427E
:203B200002D000232375CEE701232375CBE700BF02280CBF022308230B4403E013F8012D66
:203B4000FF2A03D18B42F9D1012070470020704730B583B06946FFF7A5FF9DF800309DF867
:203B600001509DF802409DF803109DF804209DF8050002332B4423440B441344184403B062
:203B800030BD00BF70B4437882780578C478DB00120102F0100203F008031343027905F031
:203BA000070564012B4304F020049201234302F0400213430B7043798579467AC479027ADD
:203BC00003F001036D0043EA861305F00205A0002B4300F00C001201034302F030021343E2
:203BE0004B7070BC704700BF70B582B00C4606466946FFF757FF214606F11000FFF7C2FF53
:203C00009DF800309DF80120012B05BFB37EA37002230323022A08D1B28BE2545A1CB18B80
:203C2000D2B2090A0233A154DBB29DF8025045B36A1E1D443244EDB212F80119E1540133CC
:203C4000DBB2AB42F8D19DF80330022B08D1F38B63556B1CF28BDBB2120A0235E254EDB264
:203C60009DF804207AB1D31D2A443344D2B2681CC0B213F80119615582420546F7D102B0AD
:203C800070BD1D46DFE7284602B070BD70B50278437884B002F007040846C2F30011C2F32D
:203CA000C0058DF804408DF80610C2F34014C3F34001C2F380128DF8055003F001068DF83B
:203CC0000740C3F381058DF80820C3F301148DF80A109B090A2201A98DF809608DF80B5002
:203CE0008DF80C408DF80D300FF037F804B070BD01294BDD2DE9F04186B014460F4603A9F8
:203D00000546FFF7C3FF03A90A2204F110000FF024F89DF81130002B34D0AE1C03A802AA82
:203D200001A9FFF757FE9DF81380B8F1000F39D0029B6BBBA383B8F1020F5FD0B8F1030F18
:203D400043D09DF81580B8F1000F36D0019B33B3717816F8023B029A03EB01239BB2E38351
:203D600002B9A383B8F1020F52D0B8F1030F38D0701B3B1A8742C4E90E6300DA002006B04C
:203D8000BDE8F081AB78A376EE1CC7E700207047727816F8023B03EB0223A383CBE7A38BF4
:203DA000E383DFE720492046FFF7EEFCA4F81C809DF81580B8F1000FC8D11B4904F1080014
:203DC000FFF7E2FCA4F81E80D2E706F108000346621E13F8011D02F8011F9E42F9D106461B
:203DE000AFE706F10800034604F1080213F8011D02F8011B9E42F9D10646B9E70A49204658
:203E0000FFF7C2FC7378237016F8023B637098E7054904F10800FFF7B7FC7378237216F851
:203E2000023B6372A4E700BFD0320100074A084913681844884202D8106018467047054B31
:203E40000C221A604FF0FF3318467047FC0C002000000120A83D0020704700BF704700BFFA
:203E6000704700BF1720FDF743BE00BF1720FDF747BE00BF0D20FDF73BBE00BF0D20FDF7F8
:203E80003FBE00BF0A20FDF733BE00BF0A20FDF737BE00BF0220FDF72BBE00BF0220FDF7F2
:203EA0002FBE00BF1A20FDF723BE00BF1A20FDF727BE00BF704700BF704700BF704700BF54
:203EC0000220FDF715BE00BF0220FDF719BE00BF0320FDF70DBE00BF0320FDF711BE00BF48
:203EE00003210020FFF738BB1A20FDF701BE00BF1A20FDF705BE00BF704700BF704700BF4D
:203F000070B5194B1C6874BB05461646E8074FF001020C461A6000F13283AA0700F13A83BC
:203F2000680700F14D832A0700F13F83E80600F15283AA0600F15A83290601F17D84E3072F
:203F400000F16886A10701F18C87630700F15983210701F17D84E30601F16581A00602F129
:203F60008982220602D470BDEC3000201A20FDF7BFFD1A20FDF7C4FD1A20FDF7B9FD1A20D8
:203F8000FDF7BEFD1A20FDF7B3FD1A20FDF7B8FD1A20FDF7ADFD1A20FDF7B2FD1A20FDF7CE
:203FA000A7FD1A20FDF7ACFD1A20FDF7A1FD1A20FDF7A6FD1A20FDF79BFD1A20FDF7A0FD58
:203FC0001A20FDF795FD1A20FDF79AFD1A20FDF78FFD1A20FDF794FD1A20FDF789FD1A20F5
:203FE000FDF78EFD1A20FDF783FD1A20FDF788FD1A20FDF77DFD1A20FDF782FD1A20FDF75E
:2040000077FD1A20FDF77CFD1A20FDF771FD1A20FDF776FD1A20FDF76BFD1A20FDF770FD17
:204020001A20FDF765FD1A20FDF76AFD1A20FDF75FFD1A20FDF764FD1A20FDF759FD1A2084
:20404000FDF75EFD1A20FDF753FD1A20FDF758FD1A20FDF74DFD1A20FDF752FD1A20FDF7ED
:2040600047FD1A20FDF74CFD1A20FDF741FD1A20FDF746FD1A20FDF73BFD1A20FDF740FDD7
:204080001A20FDF735FD1A20FDF73AFD1A20FDF72FFD1A20FDF734FD1A20FDF729FD1A2014
:2040A000FDF72EFD1A20FDF723FD1A20FDF728FD1A20FDF71DFD1A20FDF722FD1A20FDF77D
:2040C00017FD1A20FDF71CFD1A20FDF711FD1A20FDF716FD1A20FDF70BFD1A20FDF710FD97
:2040E0001A20FDF705FD1A20FDF70AFD1A20FDF7FFFC1A20FDF704FD1A20FDF7F9FC1A20A6
:20410000FDF7FEFC1A20FDF7F3FC1A20FDF7F8FC1A20FDF7EDFC1A20FDF7F2FC1A20FDF711
:20412000E7FC1A20FDF7ECFC1A20FDF7E1FC1A20FDF7E6FC1A20FDF7DBFC1A20FDF7E0FC5C
:204140001A20FDF7D5FC1A20FDF7DAFC1A20FDF7CFFC1A20FDF7D4FC1A20FDF7C9FC1A2038
:20416000FDF7CEFC1A20FDF7C3FC1A20FDF7C8FC1A20FDF7BDFC1A20FDF7C2FC1A20FDF7A1
:20418000B7FC1A20FDF7BCFC1A20FDF7B1FC1A20FDF7B6FC1A20FDF7ABFC1A20FDF7B0FC1C
:2041A0001A20FDF7A5FC1A20FDF7AAFC1A20FDF79FFC1A20FDF7A4FC1A20FDF799FC1A20C8
:2041C000FDF79EFC1A20FDF793FC1A20FDF798FC1A20FDF78DFC1A20FDF792FC1A20FDF731
:2041E00087FC1A20FDF78CFC1A20FDF781FC1A20FDF786FC1A20FDF77BFC1A20FDF780FCDC
:204200001A20FDF775FC1A20FDF77AFC1A20FDF76FFC1A20FDF774FC1A20FDF769FC1A2057
:20422000FDF76EFC1A20FDF763FC1A20FDF768FC1A20FDF75DFC1A20FDF762FC1A20FDF7C0
:2042400057FC1A20FDF75CFC1A20FDF751FC1A20FDF756FC1A20FDF74BFC1A20FDF750FC9B
:204260001A20FDF745FC1A20FDF74AFC1A20FDF73FFC1A20FDF744FC1A20FDF739FC1A20E7
:20428000FDF73EFC1A20FDF733FC1A20FDF738FC1A20FDF72DFC1A20FDF732FC1A20FDF750
:2042A00027FC1A20FDF72CFC1A20FDF721FC1A20FDF726FC1A20FDF71BFC1A20FDF720FC5B
:2042C0001A20FDF715FC1A20FDF71AFC1A20FDF70FFC1A20FDF714FC1A20FDF709FC1A2077
:2042E000FDF70EFC1A20FDF703FC1A20FDF708FC1A20FDF7FDFB1A20FDF702FC1A20FDF7E1
:20430000F7FB1A20FDF7FCFB1A20FDF7F1FB1A20FDF7F6FB1A20FDF7EBFB1A20FDF7F0FB20
:204320001A20FDF7E5FB1A20FDF7EAFB1A20FDF7DFFB1A20FDF7E4FB1A20FDF7D9FB1A200B
:20434000FDF7DEFB1A20FDF7D3FB1A20FDF7D8FB1A20FDF7CDFB1A20FDF7D2FB1A20FDF774
:20436000C7FB1A20FDF7CCFB1A20FDF7C1FB1A20FDF7C6FB1A20FDF7BBFB1A20FDF7C0FBE0
:204380001A20FDF7B5FB1A20FDF7BAFB1A20FDF7AFFB1A20FDF7B4FB1A20FDF7A9FB1A209B
:2043A000FDF7AEFB1A20FDF7A3FB1A20FDF7A8FB1A20FDF79DFB1A20FDF7A2FB1A20FDF704
:2043C00097FB1A20FDF79CFB1A20FDF791FB1A20FDF796FB1A20FDF78BFB1A20FDF790FBA0
:2043E0001A20FDF785FB1A20FDF78AFB1A20FDF77FFB1A20FDF784FB1A20FDF779FB1A202B
:20440000FDF77EFB1A20FDF773FB1A20FDF778FB1A20FDF76DFB1A20FDF772FB1A20FDF793
:2044200067FB1A20FDF76CFB1A20FDF761FB1A20FDF766FB1A20FDF75BFB1A20FDF760FB5F
:204440001A20FDF755FB1A20FDF75AFB1A20FDF74FFB1A20FDF754FB1A20FDF749FB1A20BA
:20446000FDF74EFB1A20FDF743FB1A20FDF748FB1A20FDF73DFB1A20FDF742FB1A20FDF723
:2044800037FB1A20FDF73CFB1A20FDF731FB1A20FDF736FB1A20FDF72BFB1A20FDF730FB1F
:2044A0001A20FDF725FB1A20FDF72AFB1A20FDF71FFB1A20FDF724FB1A20FDF719FB1A204A
:2044C000FDF71EFB1A20FDF713FB1A20FDF718FB1A20FDF70DFB1A20FDF712FB1A20FDF7B3
:2044E00007FB1A20FDF70CFB1A20FDF701FB1A20FDF706FB1A20FDF7FBFA1A20FDF700FBE0
:204500001A20FDF7F5FA1A20FDF7FAFA1A20FDF7EFFA1A20FDF7F4FA1A20FDF7E9FA1A20DE
:20452000FDF7EEFA1A20FDF7E3FA1A20FDF7E8FA1A20FDF7DDFA1A20FDF7E2FA1A20FDF747
:20454000D7FA1A20FDF7DCFA1A20FDF7D1FA1A20FDF7D6FA1A20FDF7CBFA1A20FDF7D0FAA4
:204560001A20FDF7C5FA1A20FDF7CAFA33064FF01A0042F18782BDE87040FDF7B9BA17209B
:20458000FDF7C6FAF1074FF0170042F18382FDF7AFFAC2E40D20FDF7BBFAB3074FF00D00C2
:2045A00042F18082FDF7A4FABAE40A20FDF7B0FA33074FF00A0042F17182FDF799FAB5E405
:2045C0000920FDF7A5FA71074FF0090042F16E82FDF78EFAA7E40220FDF79AFAF1064FF055
:2045E000020042F16782FDF783FAA2E40320FDF78FFAB3064FF0030042F16C82FDF778FA84
:204600009AE40920FDF774FA0920FDF779FA0920FDF76EFA0920FDF773FA0920FDF768FA73
:204620000920FDF76DFA0920FDF762FA0920FDF767FA0920FDF75CFA0920FDF761FA0920EB
:20464000FDF756FA0920FDF75BFA0920FDF750FA0920FDF755FA0920FDF74AFA0920FDF753
:204660004FFA0920FDF744FA0920FDF749FA0920FDF73EFA0920FDF743FA0920FDF738FA38
:204680000920FDF73DFA0920FDF732FA0920FDF737FA0920FDF72CFA0920FDF731FA09207B
:2046A000FDF726FA0920FDF72BFA0920FDF720FA0920FDF725FA0920FDF71AFA0920FDF7E3
:2046C0001FFA0920FDF714FA0920FDF719FA0920FDF70EFA0920FDF713FA0920FDF708FAF8
:2046E0000920FDF70DFA0920FDF702FA0920FDF707FA0920FDF7FCF90920FDF701FA09200C
:20470000FDF7F6F90920FDF7FBF90920FDF7F0F90920FDF7F5F90920FDF7EAF90920FDF777
:20472000EFF90920FDF7E4F90920FDF7E9F90920FDF7DEF90920FDF7E3F90920FDF7D8F9BD
:204740000920FDF7DDF90920FDF7D2F90920FDF7D7F90920FDF7CCF90920FDF7D1F909209F
:20476000FDF7C6F90920FDF7CBF90920FDF7C0F90920FDF7C5F90920FDF7BAF90920FDF707
:20478000BFF90920FDF7B4F90920FDF7B9F90920FDF7AEF90920FDF7B3F90920FDF7A8F97D
:2047A0000920FDF7ADF90920FDF7A2F90920FDF7A7F90920FDF79CF90920FDF7A1F909202F
:2047C000FDF796F90920FDF79BF90920FDF790F90920FDF795F90920FDF78AF90920FDF797
:2047E0008FF90920FDF784F90920FDF789F90920FDF77EF90920FDF783F90920FDF778F93D
:204800000920FDF77DF90920FDF772F90920FDF777F90920FDF76CF90920FDF771F90920BE
:20482000FDF766F90920FDF76BF90920FDF760F90920FDF765F90920FDF75AF90920FDF726
:204840005FF90920FDF754F90920FDF759F90920FDF74EF90920FDF753F90920FDF748F9FC
:204860000920FDF74DF90920FDF742F90920FDF747F90920FDF73CF90920FDF741F909204E
:20488000FDF736F90920FDF73BF90920FDF730F90920FDF735F90920FDF72AF90920FDF7B6
:2048A0002FF90920FDF724F90920FDF729F90920FDF71EF90920FDF723F90920FDF718F9BC
:2048C0000920FDF71DF90920FDF712F90920FDF717F90920FDF70CF90920FDF711F90920DE
:2048E000FDF706F90920FDF70BF90920FDF700F90920FDF705F90920FDF7FAF80920FDF747
:20490000FFF80920FDF7F4F80920FDF7F9F80920FDF7EEF80920FDF7F3F80920FDF7E8F881
:204920000920FDF7EDF80920FDF7E2F80920FDF7E7F80920FDF7DCF80920FDF7E1F8092072
:20494000FDF7D6F80920FDF7DBF80920FDF7D0F80920FDF7D5F80920FDF7CAF80920FDF7DA
:20496000CFF80920FDF7C4F80920FDF7C9F80920FDF7BEF80920FDF7C3F80920FDF7B8F841
:204980000920FDF7BDF80920FDF7B2F80920FDF7B7F80920FDF7ACF80920FDF7B1F8092002
:2049A000FDF7A6F80920FDF7ABF80920FDF7A0F80920FDF7A5F80920FDF79AF80920FDF76A
:2049C0009FF80920FDF794F80920FDF799F80920FDF78EF80920FDF793F80920FDF788F801
:2049E0000920FDF78DF80920FDF782F80920FDF787F80920FDF77CF80920FDF781F8092092
:204A0000FDF776F80920FDF77BF80920FDF770F80920FDF775F80920FDF76AF80920FDF7F9
:204A20006FF80920FDF764F80920FDF769F80920FDF75EF80920FDF763F80920FDF758F8C0
:204A40000920FDF75DF80920FDF752F80920FDF757F80920FDF74CF80920FDF751F8092021
:204A6000FDF746F80920FDF74BF80920FDF740F80920FDF745F80920FDF73AF80920FDF789
:204A80003FF80920FDF734F80920FDF739F80920FDF72EF80920FDF733F80920FDF728F880
:204AA0000920FDF72DF80920FDF722F80920FDF727F80920FDF71CF80920FDF721F80920B1
:204AC000FDF716F80920FDF71BF80920FDF710F80920FDF715F80920FDF70AF80920FDF719
:204AE0000FF80920FDF704F80920FDF709F80920FCF7FEFF0920FDF703F80920FCF7F8FF34
:204B00000920FCF7FDFF0920FCF7F2FF0920FCF7F7FF0920FCF7ECFF0920FCF7F1FF092022
:204B2000FCF7E6FF0920FCF7EBFF0920FCF7E0FF0920FCF7E5FF0920FCF7DAFF0920FCF78B
:204B4000DFFF0920FCF7D4FF0920FCF7D9FF0920FCF7CEFF0920FCF7D3FF0920FCF7C8FFDA
:204B60000920FCF7CDFF0920FCF7C2FF0920FCF7C7FF0920FCF7BCFF0920FCF7C1FF0920B2
:204B8000FCF7B6FF0920FCF7BBFF0920FCF7B0FF0920FCF7B5FF0920FCF7AAFF0920FCF71B
:204BA000AFFF0920FCF7A4FF0920FCF7A9FF0920FCF79EFF0920FCF7A3FF0920FCF798FF9A
:204BC0000920FCF79DFF0920FCF792FF0920FCF797FF0920FCF78CFF0920FCF791FF092042
:204BE000FCF786FF0920FCF78BFF0920FCF780FF0920FCF785FF0920FCF77AFF0920FCF7AB
:204C00007FFF75074FF0090041F15C87FCF770FFFFF79EB91720FCF76BFF1720FCF770FF61
:204C20001720FCF765FF1720FCF76AFF1720FCF75FFF1720FCF764FF1720FCF759FF172085
:204C4000FCF75EFF1720FCF753FF1720FCF758FF1720FCF74DFF1720FCF752FF1720FCF7EC
:204C600047FF1720FCF74CFF1720FCF741FF1720FCF746FF1720FCF73BFF1720FCF740FFD3
:204C80001720FCF735FF1720FCF73AFF1720FCF72FFF1720FCF734FF1720FCF729FF172015
:204CA000FCF72EFF1720FCF723FF1720FCF728FF1720FCF71DFF1720FCF722FF1720FCF77C
:204CC00017FF1720FCF71CFF1720FCF711FF1720FCF716FF1720FCF70BFF1720FCF710FF93
:204CE0001720FCF705FF1720FCF70AFF1720FCF7FFFE1720FCF704FF1720FCF7F9FE1720A7
:204D0000FCF7FEFE1720FCF7F3FE1720FCF7F8FE1720FCF7EDFE1720FCF7F2FE1720FCF710
:204D2000E7FE1720FCF7ECFE1720FCF7E1FE1720FCF7E6FE1720FCF7DBFE1720FCF7E0FE58
:204D40001720FCF7D5FE1720FCF7DAFE1720FCF7CFFE1720FCF7D4FE1720FCF7C9FE172039
:204D6000FCF7CEFE1720FCF7C3FE1720FCF7C8FE1720FCF7BDFE1720FCF7C2FE1720FCF7A0
:204D8000B7FE1720FCF7BCFE1720FCF7B1FE1720FCF7B6FE1720FCF7ABFE1720FCF7B0FE18
:204DA0001720FCF7A5FE1720FCF7AAFE1720FCF79FFE1720FCF7A4FE1720FCF799FE1720C9
:204DC000FCF79EFE1720FCF793FE1720FCF798FE1720FCF78DFE1720FCF792FE1720FCF730
:204DE00087FE1720FCF78CFE1720FCF781FE1720FCF786FE1720FCF77BFE1720FCF780FED8
:204E00001720FCF775FE1720FCF77AFE1720FCF76FFE1720FCF774FE1720FCF769FE172058
:204E2000FCF76EFE1720FCF763FE1720FCF768FE1720FCF75DFE1720FCF762FE1720FCF7BF
:204E400057FE1720FCF75CFE1720FCF751FE1720FCF756FE1720FCF74BFE1720FCF750FE97
:204E60001720FCF745FE1720FCF74AFE1720FCF73FFE1720FCF744FE1720FCF739FE1720E8
:204E8000FCF73EFE1720FCF733FE1720FCF738FE1720FCF72DFE1720FCF732FE1720FCF74F
:204EA00027FE1720FCF72CFE1720FCF721FE1720FCF726FE1720FCF71BFE1720FCF720FE57
:204EC0001720FCF715FE1720FCF71AFE1720FCF70FFE1720FCF714FE1720FCF709FE172078
:204EE000FCF70EFE1720FCF703FE1720FCF708FE1720FCF7FDFD1720FCF702FE1720FCF7E0
:204F0000F7FD1720FCF7FCFD1720FCF7F1FD1720FCF7F6FD1720FCF7EBFD1720FCF7F0FD1C
:204F20001720FCF7E5FD1720FCF7EAFD1720FCF7DFFD1720FCF7E4FD1720FCF7D9FD17200C
:204F4000FCF7DEFD1720FCF7D3FD1720FCF7D8FD1720FCF7CDFD1720FCF7D2FD1720FCF773
:204F6000C7FD1720FCF7CCFD1720FCF7C1FD1720FCF7C6FD1720FCF7BBFD1720FCF7C0FDDC
:204F80001720FCF7B5FD1720FCF7BAFD1720FCF7AFFD1720FCF7B4FD1720FCF7A9FD17209C
:204FA000FCF7AEFD1720FCF7A3FD1720FCF7A8FD1720FCF79DFD1720FCF7A2FD1720FCF703
:204FC00097FD1720FCF79CFD1720FCF791FD1720FCF796FD1720FCF78BFD1720FCF790FD9C
:204FE0001720FCF785FD1720FCF78AFD1720FCF77FFD1720FCF784FD1720FCF779FD17202C
:20500000FCF77EFD1720FCF773FD1720FCF778FD1720FCF76DFD1720FCF772FD1720FCF792
:2050200067FD1720FCF76CFD1720FCF761FD1720FCF766FD1720FCF75BFD1720FCF760FD5B
:205040001720FCF755FD1720FCF75AFD1720FCF74FFD1720FCF754FD1720FCF749FD1720BB
:20506000FCF74EFD1720FCF743FD1720FCF748FD1720FCF73DFD1720FCF742FD1720FCF722
:2050800037FD1720FCF73CFD1720FCF731FD1720FCF736FD1720FCF72BFD1720FCF730FD1B
:2050A0001720FCF725FD1720FCF72AFD1720FCF71FFD1720FCF724FD1720FCF719FD17204B
:2050C000FCF71EFD1720FCF713FD1720FCF718FD1720FCF70DFD1720FCF712FD1720FCF7B2
:2050E00007FD1720FCF70CFD1720FCF701FD1720FCF706FD1720FCF7FBFC1720FCF700FDDC
:205100001720FCF7F5FC1720FCF7FAFC1720FCF7EFFC1720FCF7F4FC1720FCF7E9FC1720DF
:20512000FCF7EEFC1720FCF7E3FC1720FCF7E8FC1720FCF7DDFC1720FCF7E2FC1720FCF746
:20514000D7FC1720FCF7DCFC1720FCF7D1FC1720FCF7D6FC1720FCF7CBFC1720FCF7D0FCA0
:205160001720FCF7C5FC1720FCF7CAFC1720FCF7BFFC1720FCF7C4FC1720FCF7B9FC17206F
:20518000FCF7BEFC1720FCF7B3FC1720FCF7B8FC1720FCF7ADFC1720FCF7B2FC1720FCF7D6
:2051A000A7FC1720FCF7ACFC1720FCF7A1FC1720FCF7A6FC1720FCF79BFC1720FCF7A0FC60
:2051C0001720FCF795FC1720FCF79AFC1720FCF78FFC1720FCF794FC1720FCF789FC1720FF
:2051E000FCF78EFC1720FCF783FC1720FCF788FC1720FCF77DFC1720FCF782FC1720FCF766
:2052000077FC1720FCF77CFC1720FCF771FC1720FCF776FCF5074FF0170041F16384FCF7E8
:2052200067FCFEF78FBE0220FCF762FC0220FCF767FC0220FCF75CFC0220FCF761FC0220DD
:20524000FCF756FC0220FCF75BFC0220FCF750FC0220FCF755FC0220FCF74AFC0220FCF766
:205260004FFC0220FCF744FC0220FCF749FC0220FCF73EFC0220FCF743FC0220FCF738FC48
:205280000220FCF73DFC0220FCF732FC0220FCF737FC0220FCF72CFC0220FCF731FC022094
:2052A000FCF726FC0220FCF72BFC0220FCF720FC0220FCF725FC0220FCF71AFC0220FCF7F6
:2052C0001FFC0220FCF714FC0220FCF719FC0220FCF70EFC0220FCF713FC0220FCF708FC08
:2052E0000220FCF70DFC0220FCF702FC0220FCF707FC0220FCF7FCFB0220FCF701FC022025
:20530000FCF7F6FB0220FCF7FBFB0220FCF7F0FB0220FCF7F5FB0220FCF7EAFB0220FCF78A
:20532000EFFB0220FCF7E4FB0220FCF7E9FB0220FCF7DEFB0220FCF7E3FB0220FCF7D8FBCD
:205340000220FCF7DDFB0220FCF7D2FB0220FCF7D7FB0220FCF7CCFB0220FCF7D1FB0220B8
:20536000FCF7C6FB0220FCF7CBFB0220FCF7C0FB0220FCF7C5FB0220FCF7BAFB0220FCF71A
:20538000BFFB0220FCF7B4FB0220FCF7B9FB0220FCF7AEFB0220FCF7B3FB0220FCF7A8FB8D
:2053A0000220FCF7ADFB0220FCF7A2FB0220FCF7A7FB0220FCF79CFB0220FCF7A1FB022048
:2053C000FCF796FB0220FCF79BFB0220FCF790FB0220FCF795FB0220FCF78AFB0220FCF7AA
:2053E0008FFB0220FCF784FB0220FCF789FB0220FCF77EFB0220FCF783FB0220FCF778FB4D
:205400000220FCF77DFB0220FCF772FB0220FCF777FB0220FCF76CFB0220FCF771FB0220D7
:20542000FCF766FB0220FCF76BFB0220FCF760FB0220FCF765FB0220FCF75AFB0220FCF739
:205440005FFB0220FCF754FB0220FCF759FB0220FCF74EFB0220FCF753FB0220FCF748FB0C
:205460000220FCF74DFB0220FCF742FB0220FCF747FB0220FCF73CFB0220FCF741FB022067
:20548000FCF736FB0220FCF73BFB0220FCF730FB0220FCF735FB0220FCF72AFB0220FCF7C9
:2054A0002FFB0220FCF724FB0220FCF729FB0220FCF71EFB0220FCF723FB0220FCF718FBCC
:2054C0000220FCF71DFB0220FCF712FB0220FCF717FB0220FCF70CFB0220FCF711FB0220F7
:2054E000FCF706FB0220FCF70BFB0220FCF700FB0220FCF705FB0220FCF7FAFA0220FCF75A
:20550000FFFA0220FCF7F4FA0220FCF7F9FA0220FCF7EEFA0220FCF7F3FA0220FCF7E8FA91
:205520000220FCF7EDFA0220FCF7E2FA0220FCF7E7FA0220FCF7DCFA0220FCF7E1FA02208B
:20554000FCF7D6FA0220FCF7DBFA0220FCF7D0FA0220FCF7D5FA0220FCF7CAFA0220FCF7ED
:20556000CFFA0220FCF7C4FA0220FCF7C9FA0220FCF7BEFA0220FCF7C3FA0220FCF7B8FA51
:205580000220FCF7BDFA0220FCF7B2FA0220FCF7B7FA0220FCF7ACFA0220FCF7B1FA02201B
:2055A000FCF7A6FA0220FCF7ABFA0220FCF7A0FA0220FCF7A5FA0220FCF79AFA0220FCF77D
:2055C0009FFA0220FCF794FA0220FCF799FA0220FCF78EFA0220FCF793FA0220FCF788FA11
:2055E0000220FCF78DFA0220FCF782FA0220FCF787FA0220FCF77CFA0220FCF781FA0220AB
:20560000FCF776FA0220FCF77BFA0220FCF770FA0220FCF775FA0220FCF76AFA0220FCF70C
:205620006FFA0220FCF764FA0220FCF769FA0220FCF75EFA0220FCF763FA0220FCF758FAD0
:205640000220FCF75DFA0220FCF752FA0220FCF757FA0220FCF74CFA0220FCF751FA02203A
:20566000FCF746FA0220FCF74BFA0220FCF740FA0220FCF745FA0220FCF73AFA0220FCF79C
:205680003FFA0220FCF734FA0220FCF739FA0220FCF72EFA0220FCF733FA0220FCF728FA90
:2056A0000220FCF72DFA0220FCF722FA0220FCF727FA0220FCF71CFA0220FCF721FA0220CA
:2056C000FCF716FA0220FCF71BFA0220FCF710FA0220FCF715FA0220FCF70AFA0220FCF72C
:2056E0000FFA0220FCF704FA0220FCF709FA0220FCF7FEF90220FCF703FA0220FCF7F8F952
:205700000220FCF7FDF90220FCF7F2F90220FCF7F7F90220FCF7ECF90220FCF7F1F902205E
:20572000FCF7E6F90220FCF7EBF90220FCF7E0F90220FCF7E5F90220FCF7DAF90220FCF7C0
:20574000DFF90220FCF7D4F90220FCF7D9F90220FCF7CEF90220FCF7D3F90220FCF7C8F915
:205760000220FCF7CDF90220FCF7C2F90220FCF7C7F90220FCF7BCF90220FCF7C1F90220EE
:20578000FCF7B6F90220FCF7BBF90220FCF7B0F90220FCF7B5F90220FCF7AAF90220FCF750
:2057A000AFF90220FCF7A4F90220FCF7A9F90220FCF79EF90220FCF7A3F90220FCF798F9D5
:2057C0000220FCF79DF90220FCF792F90220FCF797F90220FCF78CF90220FCF791F902207E
:2057E000FCF786F90220FCF78BF90220FCF780F90220FCF785F90220FCF77AF90220FCF7E0
:205800007FF90220FCF774F90220FCF779F90220FCF76EF90220FCF773F90220FCF768F994
:205820000220FCF76DF9F5064FF0020041F14681FCF75EF9FEF792BB1A20FCF769F9320665
:205840004FF01A0041F14A81FCF752F9FEF777BB0A20FCF74DF90A20FCF752F90A20FCF7A5
:2058600047F90A20FCF74CF90A20FCF741F90A20FCF746F90A20FCF73BF90A20FCF740F92C
:205880000A20FCF735F90A20FCF73AF90A20FCF72FF90A20FCF734F90A20FCF729F90A2075
:2058A000FCF72EF90A20FCF723F90A20FCF728F90A20FCF71DF90A20FCF722F90A20FCF7CF
:2058C00017F90A20FCF71CF90A20FCF711F90A20FCF716F90A20FCF70BF90A20FCF710F9EC
:2058E0000A20FCF705F90A20FCF70AF90A20FCF7FFF80A20FCF704F90A20FCF7F9F80A2007
:20590000FCF7FEF80A20FCF7F3F80A20FCF7F8F80A20FCF7EDF80A20FCF7F2F80A20FCF763
:20592000E7F80A20FCF7ECF80A20FCF7E1F80A20FCF7E6F80A20FCF7DBF80A20FCF7E0F8B1
:205940000A20FCF7D5F80A20FCF7DAF80A20FCF7CFF80A20FCF7D4F80A20FCF7C9F80A2099
:20596000FCF7CEF80A20FCF7C3F80A20FCF7C8F80A20FCF7BDF80A20FCF7C2F80A20FCF7F3
:20598000B7F80A20FCF7BCF80A20FCF7B1F80A20FCF7B6F80A20FCF7ABF80A20FCF7B0F871
:2059A0000A20FCF7A5F80A20FCF7AAF80A20FCF79FF80A20FCF7A4F80A20FCF799F80A2029
:2059C000FCF79EF80A20FCF793F80A20FCF798F80A20FCF78DF80A20FCF792F80A20FCF783
:2059E00087F80A20FCF78CF80A20FCF781F80A20FCF786F80A20FCF77BF80A20FCF780F831
:205A00000A20FCF775F80A20FCF77AF80A20FCF76FF80A20FCF774F80A20FCF769F80A20B8
:205A2000FCF76EF80A20FCF763F80A20FCF768F80A20FCF75DF80A20FCF762F80A20FCF712
:205A400057F80A20FCF75CF80A20FCF751F80A20FCF756F80A20FCF74BF80A20FCF750F8F0
:205A60000A20FCF745F80A20FCF74AF80A20FCF73FF80A20FCF744F80A20FCF739F80A2048
:205A8000FCF73EF80A20FCF733F80A20FCF738F80A20FCF72DF80A20FCF732F80A20FCF7A2
:205AA00027F80A20FCF72CF80A20FCF721F80A20FCF726F80A20FCF71BF80A20FCF720F8B0
:205AC0000A20FCF715F80A20FCF71AF80A20FCF70FF80A20FCF714F80A20FCF709F80A20D8
:205AE000FCF70EF80A20FCF703F80A20FCF708F80A20FBF7FDFF0A20FCF702F80A20FBF72D
:205B0000F7FF0A20FBF7FCFF0A20FBF7F1FF0A20FBF7F6FF0A20FBF7EBFF0A20FBF7F0FF4A
:205B20000A20FBF7E5FF0A20FBF7EAFF0A20FBF7DFFF0A20FBF7E4FF0A20FBF7D9FF0A2049
:205B4000FBF7DEFF0A20FBF7D3FF0A20FBF7D8FF0A20FBF7CDFF0A20FBF7D2FF0A20FBF7A4
:205B6000C7FF0A20FBF7CCFF0A20FBF7C1FF0A20FBF7C6FF0A20FBF7BBFF0A20FBF7C0FF0A
:205B80000A20FBF7B5FF0A20FBF7BAFF0A20FBF7AFFF0A20FBF7B4FF0A20FBF7A9FF0A20D9
:205BA000FBF7AEFF0A20FBF7A3FF0A20FBF7A8FF0A20FBF79DFF0A20FBF7A2FF0A20FBF734
:205BC00097FF0A20FBF79CFF0A20FBF791FF0A20FBF796FF0A20FBF78BFF0A20FBF790FFCA
:205BE0000A20FBF785FF0A20FBF78AFF0A20FBF77FFF0A20FBF784FF0A20FBF779FF0A2069
:205C0000FBF77EFF0A20FBF773FF0A20FBF778FF0A20FBF76DFF0A20FBF772FF0A20FBF7C3
:205C200067FF0A20FBF76CFF0A20FBF761FF0A20FBF766FF0A20FBF75BFF0A20FBF760FF89
:205C40000A20FBF755FF0A20FBF75AFF0A20FBF74FFF0A20FBF754FF0A20FBF749FF0A20F8
:205C6000FBF74EFF0A20FBF743FF0A20FBF748FF0A20FBF73DFF0A20FBF742FF0A20FBF753
:205C800037FF0A20FBF73CFF0A20FBF731FF0A20FBF736FF0A20FBF72BFF0A20FBF730FF49
:205CA0000A20FBF725FF0A20FBF72AFF0A20FBF71FFF0A20FBF724FF0A20FBF719FF0A2088
:205CC000FBF71EFF0A20FBF713FF0A20FBF718FF0A20FBF70DFF0A20FBF712FF0A20FBF7E3
:205CE00007FF0A20FBF70CFF0A20FBF701FF0A20FBF706FF0A20FBF7FBFE0A20FBF700FF0A
:205D00000A20FBF7F5FE0A20FBF7FAFE0A20FBF7EFFE0A20FBF7F4FE0A20FBF7E9FE0A201C
:205D2000FBF7EEFE0A20FBF7E3FE0A20FBF7E8FE0A20FBF7DDFE0A20FBF7E2FE0A20FBF777
:205D4000D7FE0A20FBF7DCFE0A20FBF7D1FE0A20FBF7D6FE0A20FBF7CBFE0A20FBF7D0FECE
:205D60000A20FBF7C5FE0A20FBF7CAFE0A20FBF7BFFE0A20FBF7C4FE0A20FBF7B9FE0A20AC
:205D8000FBF7BEFE0A20FBF7B3FE0A20FBF7B8FE0A20FBF7ADFE0A20FBF7B2FE0A20FBF707
:205DA000A7FE0A20FBF7ACFE0A20FBF7A1FE0A20FBF7A6FE0A20FBF79BFE0A20FBF7A0FE8E
:205DC0000A20FBF795FE0A20FBF79AFE0A20FBF78FFE0A20FBF794FE0A20FBF789FE0A203C
:205DE000FBF78EFE0A20FBF783FE0A20FBF788FE0A20FBF77DFE0A20FBF782FE0A20FBF797
:205E000077FE0A20FBF77CFE0A20FBF771FE0A20FBF776FE0A20FBF76BFE0A20FBF770FE4D
:205E20000A20FBF765FE0A20FBF76AFE0A20FBF75FFE0A20FBF764FE0A20FBF759FE0A20CB
:205E4000FBF75EFE0A20FBF753FE0A20FBF758FE32074FF00A0040F13986FBF749FEFEF775
:205E60007AB80D20FBF744FE0D20FBF749FE0D20FBF73EFE0D20FBF743FE0D20FBF738FE19
:205E80000D20FBF73DFE0D20FBF732FE0D20FBF737FE0D20FBF72CFE0D20FBF731FE0D2041
:205EA000FBF726FE0D20FBF72BFE0D20FBF720FE0D20FBF725FE0D20FBF71AFE0D20FBF7AF
:205EC0001FFE0D20FBF714FE0D20FBF719FE0D20FBF70EFE0D20FBF713FE0D20FBF708FEBE
:205EE0000D20FBF70DFE0D20FBF702FE0D20FBF707FE0D20FBF7FCFD0D20FBF701FE0D20D2
:205F0000FBF7F6FD0D20FBF7FBFD0D20FBF7F0FD0D20FBF7F5FD0D20FBF7EAFD0D20FBF743
:205F2000EFFD0D20FBF7E4FD0D20FBF7E9FD0D20FBF7DEFD0D20FBF7E3FD0D20FBF7D8FD83
:205F40000D20FBF7DDFD0D20FBF7D2FD0D20FBF7D7FD0D20FBF7CCFD0D20FBF7D1FD0D2065
:205F6000FBF7C6FD0D20FBF7CBFD0D20FBF7C0FD0D20FBF7C5FD0D20FBF7BAFD0D20FBF7D3
:205F8000BFFD0D20FBF7B4FD0D20FBF7B9FD0D20FBF7AEFD0D20FBF7B3FD0D20FBF7A8FD43
:205FA0000D20FBF7ADFD0D20FBF7A2FD0D20FBF7A7FD0D20FBF79CFD0D20FBF7A1FD0D20F5
:205FC000FBF796FD0D20FBF79BFD0D20FBF790FD0D20FBF795FD0D20FBF78AFD0D20FBF763
:205FE0008FFD0D20FBF784FD0D20FBF789FD0D20FBF77EFD0D20FBF783FD0D20FBF778FD03
:206000000D20FBF77DFD0D20FBF772FD0D20FBF777FD0D20FBF76CFD0D20FBF771FD0D2084
:20602000FBF766FD0D20FBF76BFD0D20FBF760FD0D20FBF765FD0D20FBF75AFD0D20FBF7F2
:206040005FFD0D20FBF754FD0D20FBF759FD0D20FBF74EFD0D20FBF753FD0D20FBF748FDC2
:206060000D20FBF74DFD0D20FBF742FD0D20FBF747FD0D20FBF73CFD0D20FBF741FD0D2014
:20608000FBF736FD0D20FBF73BFD0D20FBF730FD0D20FBF735FD0D20FBF72AFD0D20FBF782
:2060A0002FFD0D20FBF724FD0D20FBF729FD0D20FBF71EFD0D20FBF723FD0D20FBF718FD82
:2060C0000D20FBF71DFD0D20FBF712FD0D20FBF717FD0D20FBF70CFD0D20FBF711FD0D20A4
:2060E000FBF706FD0D20FBF70BFD0D20FBF700FD0D20FBF705FD0D20FBF7FAFC0D20FBF713
:20610000FFFC0D20FBF7F4FC0D20FBF7F9FC0D20FBF7EEFC0D20FBF7F3FC0D20FBF7E8FC47
:206120000D20FBF7EDFC0D20FBF7E2FC0D20FBF7E7FC0D20FBF7DCFC0D20FBF7E1FC0D2038
:20614000FBF7D6FC0D20FBF7DBFC0D20FBF7D0FC0D20FBF7D5FC0D20FBF7CAFC0D20FBF7A6
:20616000CFFC0D20FBF7C4FC0D20FBF7C9FC0D20FBF7BEFC0D20FBF7C3FC0D20FBF7B8FC07
:206180000D20FBF7BDFC0D20FBF7B2FC0D20FBF7B7FC0D20FBF7ACFC0D20FBF7B1FC0D20C8
:2061A000FBF7A6FC0D20FBF7ABFC0D20FBF7A0FC0D20FBF7A5FC0D20FBF79AFC0D20FBF736
:2061C0009FFC0D20FBF794FC0D20FBF799FC0D20FBF78EFC0D20FBF793FC0D20FBF788FCC7
:2061E0000D20FBF78DFC0D20FBF782FC0D20FBF787FC0D20FBF77CFC0D20FBF781FC0D2058
:20620000FBF776FC0D20FBF77BFC0D20FBF770FC0D20FBF775FC0D20FBF76AFC0D20FBF7C5
:206220006FFC0D20FBF764FC0D20FBF769FC0D20FBF75EFC0D20FBF763FC0D20FBF758FC86
:206240000D20FBF75DFC0D20FBF752FC0D20FBF757FC0D20FBF74CFC0D20FBF751FC0D20E7
:20626000FBF746FC0D20FBF74BFC0D20FBF740FC0D20FBF745FC0D20FBF73AFC0D20FBF755
:206280003FFC0D20FBF734FC0D20FBF739FC0D20FBF72EFC0D20FBF733FC0D20FBF728FC46
:2062A0000D20FBF72DFC0D20FBF722FC0D20FBF727FC0D20FBF71CFC0D20FBF721FC0D2077
:2062C000FBF716FC0D20FBF71BFC0D20FBF710FC0D20FBF715FC0D20FBF70AFC0D20FBF7E5
:2062E0000FFC0D20FBF704FC0D20FBF709FC0D20FBF7FEFB0D20FBF703FC0D20FBF7F8FB08
:206300000D20FBF7FDFB0D20FBF7F2FB0D20FBF7F7FB0D20FBF7ECFB0D20FBF7F1FB0D200B
:20632000FBF7E6FB0D20FBF7EBFB0D20FBF7E0FB0D20FBF7E5FB0D20FBF7DAFB0D20FBF779
:20634000DFFB0D20FBF7D4FB0D20FBF7D9FB0D20FBF7CEFB0D20FBF7D3FB0D20FBF7C8FBCB
:206360000D20FBF7CDFB0D20FBF7C2FB0D20FBF7C7FB0D20FBF7BCFB0D20FBF7C1FB0D209B
:20638000FBF7B6FB0D20FBF7BBFB0D20FBF7B0FB0D20FBF7B5FB0D20FBF7AAFB0D20FBF709
:2063A000AFFB0D20FBF7A4FB0D20FBF7A9FB0D20FBF79EFB0D20FBF7A3FB0D20FBF798FB8B
:2063C0000D20FBF79DFB0D20FBF792FB0D20FBF797FB0D20FBF78CFB0D20FBF791FB0D202B
:2063E000FBF786FB0D20FBF78BFB0D20FBF780FB0D20FBF785FB0D20FBF77AFB0D20FBF799
:206400007FFB0D20FBF774FB0D20FBF779FB0D20FBF76EFB0D20FBF773FB0D20FBF768FB4A
:206420000D20FBF76DFB0D20FBF762FB0D20FBF767FB0D20FBF75CFB0D20FBF761FB0D20BA
:20644000FBF756FB0D20FBF75BFB0D20FBF750FB0D20FBF755FB0D20FBF74AFB0D20FBF728
:206460004FFBB2074FF00D0040F14083FBF740FBFDF76BBD0320FBF73BFB0320FBF740FBF5
:206480000320FBF735FB0320FBF73AFB0320FBF72FFB0320FBF734FB0320FBF729FB03208E
:2064A000FBF72EFB0320FBF723FB0320FBF728FB0320FBF71DFB0320FBF722FB0320FBF7E2
:2064C00017FB0320FBF71CFB0320FBF711FB0320FBF716FB0320FBF70BFB0320FBF710FBFC
:2064E0000320FBF705FB0320FBF70AFB0320FBF7FFFA0320FBF704FB0320FBF7F9FA032020
:20650000FBF7FEFA0320FBF7F3FA0320FBF7F8FA0320FBF7EDFA0320FBF7F2FA0320FBF776
:20652000E7FA0320FBF7ECFA0320FBF7E1FA0320FBF7E6FA0320FBF7DBFA0320FBF7E0FAC1
:206540000320FBF7D5FA0320FBF7DAFA0320FBF7CFFA0320FBF7D4FA0320FBF7C9FA0320B2
:20656000FBF7CEFA0320FBF7C3FA0320FBF7C8FA0320FBF7BDFA0320FBF7C2FA0320FBF706
:20658000B7FA0320FBF7BCFA0320FBF7B1FA0320FBF7B6FA0320FBF7ABFA0320FBF7B0FA81
:2065A0000320FBF7A5FA0320FBF7AAFA0320FBF79FFA0320FBF7A4FA0320FBF799FA032042
:2065C000FBF79EFA0320FBF793FA0320FBF798FA0320FBF78DFA0320FBF792FA0320FBF796
:2065E00087FA0320FBF78CFA0320FBF781FA0320FBF786FA0320FBF77BFA0320FBF780FA41
:206600000320FBF775FA0320FBF77AFA0320FBF76FFA0320FBF774FA0320FBF769FA0320D1
:20662000FBF76EFA0320FBF763FA0320FBF768FA0320FBF75DFA0320FBF762FA0320FBF725
:2066400057FA0320FBF75CFA0320FBF751FA0320FBF756FA0320FBF74BFA0320FBF750FA00
:206660000320FBF745FA0320FBF74AFA0320FBF73FFA0320FBF744FA0320FBF739FA032061
:20668000FBF73EFA0320FBF733FA0320FBF738FA0320FBF72DFA0320FBF732FA0320FBF7B5
:2066A00027FA0320FBF72CFA0320FBF721FA0320FBF726FA0320FBF71BFA0320FBF720FAC0
:2066C0000320FBF715FA0320FBF71AFA0320FBF70FFA0320FBF714FA0320FBF709FA0320F1
:2066E000FBF70EFA0320FBF703FA0320FBF708FA0320FBF7FDF90320FBF702FA0320FBF746
:20670000F7F90320FBF7FCF90320FBF7F1F90320FBF7F6F90320FBF7EBF90320FBF7F0F985
:206720000320FBF7E5F90320FBF7EAF90320FBF7DFF90320FBF7E4F90320FBF7D9F9032085
:20674000FBF7DEF90320FBF7D3F90320FBF7D8F90320FBF7CDF90320FBF7D2F90320FBF7D9
:20676000C7F90320FBF7CCF90320FBF7C1F90320FBF7C6F90320FBF7BBF90320FBF7C0F945
:206780000320FBF7B5F90320FBF7BAF90320FBF7AFF90320FBF7B4F90320FBF7A9F9032015
:2067A000FBF7AEF90320FBF7A3F90320FBF7A8F90320FBF79DF90320FBF7A2F90320FBF769
:2067C00097F90320FBF79CF90320FBF791F90320FBF796F90320FBF78BF90320FBF790F905
:2067E0000320FBF785F90320FBF78AF90320FBF77FF90320FBF784F90320FBF779F90320A5
:20680000FBF77EF90320FBF773F90320FBF778F90320FBF76DF90320FBF772F90320FBF7F8
:2068200067F90320FBF76CF90320FBF761F90320FBF766F90320FBF75BF90320FBF760F9C4
:206840000320FBF755F90320FBF75AF90320FBF74FF90320FBF754F90320FBF749F9032034
:20686000FBF74EF90320FBF743F90320FBF748F90320FBF73DF90320FBF742F90320FBF788
:2068800037F90320FBF73CF90320FBF731F90320FBF736F90320FBF72BF90320FBF730F984
:2068A0000320FBF725F90320FBF72AF90320FBF71FF90320FBF724F90320FBF719F90320C4
:2068C000FBF71EF90320FBF713F90320FBF718F90320FBF70DF90320FBF712F90320FBF718
:2068E00007F90320FBF70CF90320FBF701F90320FBF706F90320FBF7FBF80320FBF700F945
:206900000320FBF7F5F80320FBF7FAF80320FBF7EFF80320FBF7F4F80320FBF7E9F8032058
